{
  "contractName": "VoteContract",
  "abi": [
    {
      "inputs": [],
      "stateMutability": "nonpayable",
      "type": "constructor"
    },
    {
      "inputs": [
        {
          "internalType": "uint256",
          "name": "candidateId",
          "type": "uint256"
        }
      ],
      "name": "castVote",
      "outputs": [
        {
          "internalType": "bool",
          "name": "",
          "type": "bool"
        }
      ],
      "stateMutability": "nonpayable",
      "type": "function"
    },
    {
      "inputs": [],
      "name": "getResults",
      "outputs": [
        {
          "components": [
            {
              "internalType": "uint256",
              "name": "id",
              "type": "uint256"
            },
            {
              "internalType": "string",
              "name": "candidate",
              "type": "string"
            },
            {
              "internalType": "uint256",
              "name": "vote",
              "type": "uint256"
            }
          ],
          "internalType": "struct VoteContract.Ballot[]",
          "name": "",
          "type": "tuple[]"
        }
      ],
      "stateMutability": "view",
      "type": "function",
      "constant": true
    }
  ],
  "bytecode": "0x608060405234801561001057600080fd5b5060408051606081018252600180825282518084018452600b81526a506f696e7420427265616b60a81b60208281019190915283018190526000938301849052825184559192916100619082610364565b50604091909101516002909101556003805460018181018355600083815280549290930260008051602061092c833981519152810192835560008051602061090c83398151915201906100b49082610423565b50600291820154908201556040805160608101825291825280518082018252600581526414dc19595960da1b60208281019190915283018190526000918301829052825182556001906101079082610364565b50604091909101516002909101556003805460018181018355600083815280549290930260008051602061092c833981519152810192835560008051602061090c833981519152019061015a9082610423565b5060029182015491015560408051606081018252600381528151808301835260098152684a6f686e205769636b60b81b60208281019190915282018190526000928201839052815183559091906001906101b49082610364565b50604091909101516002909101556003805460018181018355600083815280549290930260008051602061092c833981519152810192835560008051602061090c83398151915201906102079082610423565b50600291820154910155604080516060810182526004815281518083018352600b81526a537472656574204b696e6760a81b60208281019190915282018190526000928201839052815183559091906001906102639082610364565b50604091909101516002909101556003805460018181018355600083815280549290930260008051602061092c833981519152810192835560008051602061090c83398151915201906102b69082610423565b506002918201549101556104fd565b634e487b7160e01b600052604160045260246000fd5b600181811c908216806102ef57607f821691505b60208210810361030f57634e487b7160e01b600052602260045260246000fd5b50919050565b601f82111561035f57600081815260208120601f850160051c8101602086101561033c5750805b601f850160051c820191505b8181101561035b57828155600101610348565b5050505b505050565b81516001600160401b0381111561037d5761037d6102c5565b6103918161038b84546102db565b84610315565b602080601f8311600181146103c657600084156103ae5750858301515b600019600386901b1c1916600185901b17855561035b565b600085815260208120601f198616915b828110156103f5578886015182559484019460019091019084016103d6565b50858210156104135787850151600019600388901b60f8161c191681555b5050505050600190811b01905550565b81810361042e575050565b61043882546102db565b6001600160401b0381111561044f5761044f6102c5565b61045d8161038b84546102db565b6000601f82116001811461049157600083156104795750848201545b600019600385901b1c1916600184901b1784556104f6565b600085815260209020601f19841690600086815260209020845b838110156104cb57828601548255600195860195909101906020016104ab565b50858310156104e95781850154600019600388901b60f8161c191681555b50505060018360011b0184555b5050505050565b6104008061050c6000396000f3fe608060405234801561001057600080fd5b50600436106100365760003560e01c80633eb76b9c1461003b5780634717f97c14610063575b600080fd5b61004e610049366004610285565b610078565b60405190151581526020015b60405180910390f35b61006b610111565b60405161005a919061029e565b600061008333610216565b1561009057506000919050565b600480546001810182556000919091527f8a35acfbc15ff81a39ae7d344fd709f28e8600b4aa8c65c6b64bfe7fe36bd19b0180546001600160a01b0319163317905560038054839081106100e6576100e6610353565b60009182526020822060026003909202010180549161010483610369565b9091555060019392505050565b60606003805480602002602001604051908101604052809291908181526020016000905b8282101561020d57838290600052602060002090600302016040518060600160405290816000820154815260200160018201805461017290610390565b80601f016020809104026020016040519081016040528092919081815260200182805461019e90610390565b80156101eb5780601f106101c0576101008083540402835291602001916101eb565b820191906000526020600020905b8154815290600101906020018083116101ce57829003601f168201915b5050505050815260200160028201548152505081526020019060010190610135565b50505050905090565b6004546000901561027d5760005b60045481101561027b576004818154811061024157610241610353565b6000918252602090912001546001600160a01b03908116908416036102695750600192915050565b8061027381610369565b915050610224565b505b506000919050565b60006020828403121561029757600080fd5b5035919050565b60006020808301818452808551808352604092508286019150828160051b8701018488016000805b8481101561034457603f198a8503018652825160608151865289820151818b880152805180838901528592505b80831015610311578183018c015188840160800152918b01916102f3565b8781016080908101879052938b01518b890152988b0198601f01601f1916909601909101945050918701916001016102c6565b50919998505050505050505050565b634e487b7160e01b600052603260045260246000fd5b60006001820161038957634e487b7160e01b600052601160045260246000fd5b5060010190565b600181811c908216806103a457607f821691505b6020821081036103c457634e487b7160e01b600052602260045260246000fd5b5091905056fea2646970667358221220622b839e4d1a73bf1fe15a96ac1c820876f0d89eb4c94f9b506562eabf5fcd3f64736f6c63430008110033c2575a0e9e593c00f959f8c92f12db2869c3395a3b0502d05e2516446f71f85cc2575a0e9e593c00f959f8c92f12db2869c3395a3b0502d05e2516446f71f85b",
  "immutableReferences": {},
  "source": "//SPDX-License-Identifier: GPL-3.0\r\npragma solidity ^0.8.7;\r\n\r\ncontract VoteContract{\r\n\r\n  struct Ballot {\r\n    uint id;\r\n    string candidate;\r\n    uint vote;\r\n  }\r\n\r\n  Ballot private ballot;\r\n  Ballot[] private ballots;\r\n  address[] private addresses;\r\n\r\n  constructor(){\r\n\r\n    ballot = Ballot(1, \"Point Break\", 0);\r\n    ballots.push(ballot);\r\n\r\n    ballot = Ballot(2, \"Speed\", 0);\r\n    ballots.push(ballot);\r\n\r\n    ballot = Ballot(3, \"John Wick\", 0);\r\n    ballots.push(ballot);\r\n\r\n    ballot = Ballot(4, \"Street King\", 0);\r\n    ballots.push(ballot);\r\n  }\r\n\r\n  function castVote(uint candidateId) external returns (bool) {\r\n\r\n    if(checkAddress(msg.sender)){\r\n      return false;\r\n    }\r\n\r\n    addresses.push(msg.sender);\r\n\r\n    ballots[candidateId].vote++;\r\n\r\n    return true;\r\n  }\r\n\r\n  function getResults() external view returns(Ballot[] memory){\r\n    return ballots;\r\n  }\r\n\r\n  function checkAddress(address from) private view returns (bool) {\r\n\r\n    if(addresses.length > 0){\r\n      for(uint i=0; i<addresses.length; i++){\r\n\r\n        if(from == addresses[i]){\r\n          return true;\r\n        }\r\n      }\r\n    }\r\n\r\n    return false;\r\n  }\r\n}\r\n",
  "sourcePath": "D:\\vote\\client\\contracts\\VoteContract.sol",
  "compiler": {
    "name": "solc",
    "version": "0.8.17+commit.8df45f5f.Emscripten.clang"
  },
  "schemaVersion": "3.4.11",
  "updatedAt": "2023-01-11T13:56:47.835Z",
  "networkType": "ethereum",
  "devdoc": {
    "kind": "dev",
    "methods": {},
    "version": 1
  },
  "userdoc": {
    "kind": "user",
    "methods": {},
    "version": 1
  }
}