{
  "contractName": "VoteContract",
  "abi": [
    {
      "inputs": [],
      "stateMutability": "nonpayable",
      "type": "constructor"
    },
    {
      "inputs": [
        {
          "internalType": "uint256",
          "name": "_data",
          "type": "uint256"
        }
      ],
      "name": "castVote",
      "outputs": [],
      "stateMutability": "nonpayable",
      "type": "function"
    },
    {
      "inputs": [],
      "name": "getResults",
      "outputs": [
        {
          "components": [
            {
              "internalType": "uint256",
              "name": "id",
              "type": "uint256"
            },
            {
              "internalType": "string",
              "name": "candidate",
              "type": "string"
            },
            {
              "internalType": "uint256",
              "name": "vote",
              "type": "uint256"
            }
          ],
          "internalType": "struct VoteContract.Ballot[]",
          "name": "",
          "type": "tuple[]"
        }
      ],
      "stateMutability": "view",
      "type": "function",
      "constant": true
    }
  ],
  "bytecode": "0x608060405234801561001057600080fd5b5060408051606081018252600180825282518084018452600b81526a506f696e7420427265616b60a81b60208281019190915283018190526000938301849052825184559192916100619082610364565b506040919091015160029091015560038054600181810183556000838152805492909302600080516020610859833981519152810192835560008051602061083983398151915201906100b49082610423565b50600291820154908201556040805160608101825291825280518082018252600581526414dc19595960da1b60208281019190915283018190526000918301829052825182556001906101079082610364565b5060409190910151600290910155600380546001818101835560008381528054929093026000805160206108598339815191528101928355600080516020610839833981519152019061015a9082610423565b5060029182015491015560408051606081018252600381528151808301835260098152684a6f686e205769636b60b81b60208281019190915282018190526000928201839052815183559091906001906101b49082610364565b506040919091015160029091015560038054600181810183556000838152805492909302600080516020610859833981519152810192835560008051602061083983398151915201906102079082610423565b50600291820154910155604080516060810182526004815281518083018352600b81526a537472656574204b696e6760a81b60208281019190915282018190526000928201839052815183559091906001906102639082610364565b506040919091015160029091015560038054600181810183556000838152805492909302600080516020610859833981519152810192835560008051602061083983398151915201906102b69082610423565b506002918201549101556104fd565b634e487b7160e01b600052604160045260246000fd5b600181811c908216806102ef57607f821691505b60208210810361030f57634e487b7160e01b600052602260045260246000fd5b50919050565b601f82111561035f57600081815260208120601f850160051c8101602086101561033c5750805b601f850160051c820191505b8181101561035b57828155600101610348565b5050505b505050565b81516001600160401b0381111561037d5761037d6102c5565b6103918161038b84546102db565b84610315565b602080601f8311600181146103c657600084156103ae5750858301515b600019600386901b1c1916600185901b17855561035b565b600085815260208120601f198616915b828110156103f5578886015182559484019460019091019084016103d6565b50858210156104135787850151600019600388901b60f8161c191681555b5050505050600190811b01905550565b81810361042e575050565b61043882546102db565b6001600160401b0381111561044f5761044f6102c5565b61045d8161038b84546102db565b6000601f82116001811461049157600083156104795750848201545b600019600385901b1c1916600184901b1784556104f6565b600085815260209020601f19841690600086815260209020845b838110156104cb57828601548255600195860195909101906020016104ab565b50858310156104e95781850154600019600388901b60f8161c191681555b50505060018360011b0184555b5050505050565b61032d8061050c6000396000f3fe608060405234801561001057600080fd5b50600436106100365760003560e01c80633eb76b9c1461003b5780634717f97c14610050575b600080fd5b61004e6100493660046101b2565b61006e565b005b6100586100ad565b60405161006591906101cb565b60405180910390f35b60008190506003818154811061008657610086610280565b6000918252602082206002600390920201018054916100a483610296565b91905055505050565b60606003805480602002602001604051908101604052809291908181526020016000905b828210156101a957838290600052602060002090600302016040518060600160405290816000820154815260200160018201805461010e906102bd565b80601f016020809104026020016040519081016040528092919081815260200182805461013a906102bd565b80156101875780601f1061015c57610100808354040283529160200191610187565b820191906000526020600020905b81548152906001019060200180831161016a57829003601f168201915b50505050508152602001600282015481525050815260200190600101906100d1565b50505050905090565b6000602082840312156101c457600080fd5b5035919050565b60006020808301818452808551808352604092508286019150828160051b8701018488016000805b8481101561027157603f198a8503018652825160608151865289820151818b880152805180838901528592505b8083101561023e578183018c015188840160800152918b0191610220565b8781016080908101879052938b01518b890152988b0198601f01601f1916909601909101945050918701916001016101f3565b50919998505050505050505050565b634e487b7160e01b600052603260045260246000fd5b6000600182016102b657634e487b7160e01b600052601160045260246000fd5b5060010190565b600181811c908216806102d157607f821691505b6020821081036102f157634e487b7160e01b600052602260045260246000fd5b5091905056fea2646970667358221220b552f019b0a155806dd791002a82e5a21ebd78905a69c6d6ff9d4b3de0fec85464736f6c63430008110033c2575a0e9e593c00f959f8c92f12db2869c3395a3b0502d05e2516446f71f85cc2575a0e9e593c00f959f8c92f12db2869c3395a3b0502d05e2516446f71f85b",
  "immutableReferences": {},
  "source": "//SPDX-License-Identifier: GPL-3.0\r\npragma solidity ^0.8.7;\r\n\r\ncontract VoteContract{\r\n\r\n  struct Ballot {\r\n    uint id;\r\n    string candidate;\r\n    uint vote;\r\n  }\r\n\r\n  Ballot private ballot;\r\n  Ballot[] private ballots;\r\n\r\n  constructor(){\r\n\r\n    ballot = Ballot(1, \"Point Break\", 0);\r\n    ballots.push(ballot);\r\n\r\n    ballot = Ballot(2, \"Speed\", 0);\r\n    ballots.push(ballot);\r\n\r\n    ballot = Ballot(3, \"John Wick\", 0);\r\n    ballots.push(ballot);\r\n\r\n    ballot = Ballot(4, \"Street King\", 0);\r\n    ballots.push(ballot);\r\n  }\r\n\r\n  function castVote(uint _data) external {\r\n    uint candidateId = _data;\r\n    ballots[candidateId].vote++;\r\n  }\r\n\r\n  function getResults() external view returns(Ballot[] memory){\r\n    return ballots;\r\n  }\r\n\r\n}\r\n",
  "sourcePath": "D:\\vote\\client\\contracts\\VoteContract.sol",
  "compiler": {
    "name": "solc",
    "version": "0.8.17+commit.8df45f5f.Emscripten.clang"
  },
  "schemaVersion": "3.4.11",
  "updatedAt": "2023-01-03T19:06:06.027Z",
  "networkType": "ethereum",
  "devdoc": {
    "kind": "dev",
    "methods": {},
    "version": 1
  },
  "userdoc": {
    "kind": "user",
    "methods": {},
    "version": 1
  }
}